:020000040800F2
:100000009007002019150008211500082315000885
:1000100000000000000000000000000000000000E0
:10002000000000000000000000000000251500088E
:100030000000000000000000271500082915000836
:100040002B1500082B1500082B1500082B15000890
:100050002B1500082B1500082B1500082B15000880
:10006000000000002B1500082B1500082B150008B8
:100070002B1500082B1500082B1500082B15000860
:100080002B15000800000000000000002B150008E0
:10009000000000002B1500082B1500082B15000888
:1000A000000000002B1500080000000031130008BC
:1000B00000F002F800F050F80CA030C808382418FE
:1000C0002D18A246671EAB4654465D46AC4201D190
:1000D00000F042F87E460F3E0FCCB6460126334272
:1000E00000D0FB1AA246AB4633431847CC1C000095
:1000F000EC1C0000103A02D378C878C1FAD8520735
:1001000001D330C830C101D504680C6070470000CD
:100110000023002400250026103A01D378C1FBD823
:10012000520700D330C100D50B60704710B5642969
:1001300002D101F071FB10BD782902D101F0A2FBC0
:1001400010BD732902D101F0A1FD10BD002010BD2A
:100150001FB51FBD10B510BD01F0E0FD1146FFF742
:10016000F7FF00F05DF801F0F8FD03B4FFF7F2FFD0
:1001700003BC01F0A3F8000070B5002500F005F9FC
:10018000064600240AE00120A0403040002804D0A8
:100190000720011B012088400543641C082CF2DB6A
:1001A000A81070BD3EB50546002000900190029059
:1001B000002410E00120A0402840002805D0312074
:1001C0000721091B6A46505404E030200721091B0F
:1001D0006A465054641C082CECDB0A2069460872FD
:1001E0006A46294655A001F0B9FA3EBD01144840BF
:1001F00001124840011148408110484041104840D8
:100200007047014648104840704710B5082001F07B
:100210001CF800F0DBFFE120400201F05CF810BDAB
:100220000027FFF7F2FF00F0A3F8002616E03046A3
:10023000FFF7E7FF0446314643A001F08FFA20B2F2
:10024000FFF7B0FF2046FFF7D1FF0446214641A04B
:1002500001F084FA20B2FFF7A5FF761C402EE6DB02
:1002600019E000F0C6FF00F090F80546A54212D054
:100270002C4600F0C5FF20B2FFF794FF002000F0ED
:1002800092F800F08AF80746394635A001F066FA80
:10029000012000F088F8E4E701460122D2030A4079
:1002A000104642104A4001239B031A40104342105B
:1002B0004A405B101A40104342104A405B101A40FB
:1002C000104342104A405B101A40104342104A400B
:1002D0005B101A40104342104A405B101A40104312
:1002E00042104A405B101A40104342104A4080239B
:1002F0001A40104342104A4040231A401043421013
:100300004A4020231A40104342104A4010231A400A
:10031000104342104A4008231A40104342104A40FA
:1003200004231A40104342104A4002231A4010434B
:1003300042104A40D207D20F104370473078253020
:1003400032782C25730A00002B2B2B69203D2025A9
:10035000642009002D2D2D69203D202564200900F1
:10036000696E667261726564203D202564200A0012
:1003700010B5002406E0182161430F4A881801F0E7
:100380004FF8641C082CF6DB10BD10B53F210A485D
:1003900001F09FF80446204610BD10B50648903085
:1003A00001F083F810BD10B5044621460248A8307C
:1003B00001F066F810BD00000000002010B50446F2
:1003C0000920C006844209D10121480400F095FBB0
:1003D00000210120400400F090FB30E06E48844290
:1003E00008D10121000200F088FB0021200200F06A
:1003F00084FB24E06948844208D10121000200F016
:100400007CFB0021200200F078FB18E06448844265
:1004100009D10121080500F070FB00210120000531
:1004200000F06BFB0BE05F48844208D10121880596
:1004300000F063FB00210120800500F05EFB10BD91
:10044000F0B50A4600210023002400BF3DE001254D
:100450008D402B4615681D402C469C4234D11579A1
:10046000012D02D01579022D16D185684F00032683
:10047000BE40B543856055794E00B540866835432A
:100480008560858801268E40B5438580858896796C
:100490008E40B6B23543858005684F000326BE40C6
:1004A000B543056015794E00B540066835430560D3
:1004B000C5684F000326BE40B543C560D5794E00E0
:1004C000B540C6683543C560491C1029BFD3F0BD8F
:1004D00035490160002101710221417100218171C2
:1004E000C171704708B5012212040092009A0A43B4
:1004F0000092009AC261C161009AC261C269009211
:10050000C269009208BD02460020138A0B40002BEE
:1005100001D0012000E0002070470146088A7047A2
:1005200002460020938A0B40002B01D0012000E0FE
:10053000002070470146888A7047816170470185B5
:100540007047002A01D0816100E0018570478182F7
:100550007047F0B5002300244D07EE0E1546B54058
:100560002B46CD10AE0005462035AD594E07F70E8F
:100570000F26BE40B543CE10B60007462037BD510A
:10058000CD10AE003D46AD591D432C46CD10AD00FB
:100590003E467451F0BD00000004004800080048C9
:1005A000000C004800140048FFFF0000FD480068F0
:1005B00001210843FB49086008464068FA490840A1
:1005C000F849486008460068F8490840F54908605D
:1005D00008460068012189048843F24908600846FA
:1005E00040683F2109048843EE4948600846C06AD4
:1005F00000090001C8620846006BFF21543188439E
:10060000E84908630846406B400840004863002002
:10061000886070470021E34A9170114688707047E6
:1006200010B502460021002300205111002902D1FB
:10063000DC4C23680BE0012902D1DA4C236A06E086
:10064000022902D1D74C636A01E0D64C636BD10614
:10065000C90E01248C401C40002C01D0012000E078
:10066000002010BD38B5002000900024002500BFF8
:100670001120FFF7D5FF05460098401C009005218A
:1006800009030098884201D0002DF1D01120FFF716
:10069000C7FF002801D0012400E00024204638BD17
:1006A00001460020BF4A1068F82302469A431046CC
:1006B000CA001043BB4A10607047002806D0B949F1
:1006C000096801221143B74A116005E0B54909687C
:1006D00049084900B34A1160704701460020B14AF9
:1006E000506BF82302469A431046CA001043AD4AA5
:1006F00050637047002806D0AA49496B0122114374
:10070000A84A516305E0A749496B49084900A54A31
:1007100051637047002806D0A249496B04229143D7
:10072000A04A516305E09F49496B042211439D4A49
:10073000516370479B49096A49084900994A116207
:100740001146096A04229143964A11621146096AC8
:100750000143116270479349096A18229143914AF3
:1007600011621146096A014311627047002806D0E0
:100770008C49496A012211438A4A516205E089493C
:10078000496A49084900874A51627047854A526858
:100790003D231B049A43834B5A601A465268034612
:1007A0000B431A437F4B5A607047002807D07D499E
:1007B00009680122120611437A4A116006E079495C
:1007C0000968012212069143764A1160704701467A
:1007D0000020744AD06A0009000102460A4310460C
:1007E000704AD0627047002807D06E49096801221C
:1007F000D20411436B4A116006E06A49096801227C
:10080000D2049143674A116070476649C8717047C6
:1008100001460020634A50688008800002460A436F
:100820001046604A506070475E4840680C2108409E
:100830007047014600205B4A5068F02302469A4305
:10084000104602460A431046564A50607047014619
:100850000020544A506807231B0202469A43104660
:1008600002460A4310464F4A506070474D49496856
:100870000122920391434B4A51601146496882B26A
:100880001143484A51601146096B92159143454AFC
:1008900011631146096B020C1143424A1163704700
:1008A0004049096B402291433E4A11631146096B4E
:1008B0000143116370473B49096B10229143394A48
:1008C00011631146096B0143116370473549096B88
:1008D00089088900334A11631146096B014311638A
:1008E0007047FEB5044600250026002001900090C8
:1008F00000272C4840680C2108400546002D04D0F4
:10090000042D05D0082D28D105E02948206027E0D6
:100910002748206024E0234840680F2189040840CC
:100920000646204840680121090408400190B00CA7
:10093000861C0198002803D11E48704320600BE0FC
:100940001848C06A0007000F401C00901848009922
:1009500001F080F87043206002E01548206000BF7D
:1009600000BF10484068F021084005462D09124894
:10097000475D2068F84060600A4840680721090226
:10098000084005462D0A0C48475D6068F840A060A5
:100990000448006BFF2101310840884210D007480D
:1009A000E0601BE0001002400CB8FFF8FFFFF6FE0D
:1009B00000127A0000093D00C0000020809FD50091
:1009C00075484068012189030840884203D0A06827
:1009D0004008E06002E0A0688008E0606E48006BBC
:1009E00040210840402802D06C48206102E00120EC
:1009F000C00320616848006B10210840102802D015
:100A00006748606101E0206860616348006B8007AF
:100A1000800F002802D1A068A06119E05E48006B39
:100A20008007800F012802D12068A06110E05A4899
:100A3000006B8007800F022802D18003A06107E0CD
:100A40005548006B8007800F032801D15448A061EE
:100A5000FEBD5149096A01434F4A1162704700289F
:100A600007D04D49096A0122D20311434A4A116253
:100A700006E04949096A0122D2039143464A1162BC
:100A80007047002807D04449096A01221204114323
:100A9000414A116206E04049096A01221204914369
:100AA0003D4A11627047002905D03B4A5269024312
:100AB000394B5A6104E0384A52698243364B5A61D5
:100AC0007047002905D0344A92690243324B9A613B
:100AD00004E0314A926982432F4B9A6170470029A2
:100AE00005D02D4AD26902432B4BDA6104E02A4A31
:100AF000D2698243284BDA617047002905D0264A23
:100B0000926A0243244B9A6204E0234A926A824327
:100B1000214B9A627047002905D01F4AD2680243D0
:100B20001D4BDA6004E01C4AD26882431A4BDA603B
:100B30007047002905D0184A12690243164B1A6102
:100B400004E0154A12698243134B1A617047002969
:100B500005D0114A527A02430F4B5A7204E00E4AF2
:100B6000527A82430C4B5A7270470B48406A0121FB
:100B70000906084308494862704701460020064AB2
:100B800092680A40002A01D0012000E0002070474E
:100B90000149887270470000001002401280000076
:100BA00000127A0010B50446F748844209D10121A9
:100BB0008803FFF7B0FF002101208003FFF7ABFFA0
:100BC0000BE0F248844208D101214804FFF7B1FF4D
:100BD000002101204004FFF7ACFF10BDF0B589B043
:100BE00005460E4600240020089000BF00BF28687C
:100BF0004008400028606C680321090320468843B0
:100C00000446B06804436C602C68E1480440F16815
:100C1000706808433169084304432C60AC680321C1
:100C2000090220468843044670690443AC60684664
:100C3000FFF757FED448854202D10698089001E09C
:100C40000298089028680121C9030840002809D0AB
:100C5000326851001923089A5A43104600F0FAFEF0
:100C6000074608E0326891001923089A5A43104653
:100C700000F0F0FE07466421384600F0EBFE040168
:100C8000200964214843381A079028680121C903C4
:100C9000084000280AD00799C9000846323064216C
:100CA00000F0D8FE4007400F044309E0079909010E
:100CB00008463230642100F0CDFE0007000F0443E7
:100CC000AC8109B0F0BD4B21C90101600021416038
:100CD0008160C1600C21016100214161704710B544
:100CE000002242680F2424021346A3431A464C688C
:100CF0000B6823438C682343CC6823431A43426028
:100D000010BD0021016041608160C1607047002911
:100D100004D0026801231A43026003E0026852080B
:100D2000520002607047002A03D003680B4303603F
:100D300002E003688B4303607047002905D0026816
:100D40000123DB031A43026004E002680123DB0392
:100D50009A4302607047002905D082680123DB02B4
:100D60001A43826004E082680123DB029A438260B6
:100D70007047002905D042680123DB041A43426012
:100D800004E042680123DB049A4342607047002973
:100D900005D0426801239B041A43426004E0426884
:100DA00001239B049A4342607047002A03D04368A2
:100DB0000B43436002E043688B4343607047002964
:100DC00005D042680123DB031A43426004E0426815
:100DD0000123DB039A4342607047002905D0426833
:100DE0000123DB051A43426004E042680123DB056E
:100DF0009A43426070474269120E1206426142698C
:100E00000A4342617047028AFF231B021A40028292
:100E1000028A0A4302827047002904D00268022332
:100E20001A43026003E0026802239A43026070479B
:100E3000826803231B059A43826082680A438260AA
:100E40007047002905D0426801231B051A43426000
:100E500004E0426801231B059A43426070474268E0
:100E600003235B059A43426042680A43426070472D
:100E7000C1690122D2039143C1617047CA05D20DF5
:100E8000028570470146888CC005C00D70474268D6
:100E90001202120A426042680B061A43426070470F
:100EA000002905D0026801235B031A43026004E0B5
:100EB000026801235B039A430260704702680123C2
:100EC000DB029A43026002680A430260704742688C
:100ED00010239A43426042680A4342607047426866
:100EE00020239A43426042680A43426070470029C7
:100EF00005D0426801239B031A43426004E0426824
:100F000001239B039A4342607047002904D0826802
:100F100008231A43826003E0826808239A438260B0
:100F20007047028AD2B20282028A0B021A430282FC
:100F30007047002904D0826820231A43826003E0AE
:100F4000826820239A4382607047002904D0826817
:100F500010231A43826003E0826810239A43826060
:100F60007047826807235B049A43826082684B045F
:100F70001A438260704742691202120A4261426952
:100F80000B061A434261704700380140004400409C
:100F9000F3E9FFFF826804239A43826082680A4370
:100FA00082607047002904D0826802231A4382605D
:100FB00003E0826802239A4382607047002905D0CB
:100FC000826801239B031A43826004E08268012344
:100FD0009B039A438260704782680123DB039A4334
:100FE000826082680A438260704702681F235B0543
:100FF0009A43026002684B051A4302607047026818
:101000001F231B049A43026002680B041A43026008
:101010007047002A03D083680B43836002E0836833
:101020008B4383607047826801235B039A4382602D
:1010300082680A4382607047F8B5034600240026A0
:1010400000960025002018460E04340ECEB20096FD
:101050000127009EB7403D46022C01D1001D02E051
:10106000032C00D10830002A03D006682E43066006
:1010700002E00668AE430660F8BD002A03D0038B89
:101080000B43038302E0038B8B4303837047826827
:1010900001231B039A43826082680A43826070477F
:1010A00002460020D3690B40002B01D0012000E054
:1010B000002070470162704770B502460B4600245D
:1010C0000021002500201E04350ED9B201268E40D5
:1010D0003146012D02D11668314006E0022D02D1C1
:1010E0005668314001E0966831401C0C0126A6404C
:1010F0003446D6693440002903D0002C01D00120A9
:1011000000E0002070BD10B5002300220B0C01246C
:101110009C402246026210BD00218278002A27D01E
:10112000274A03231B02D21803789B109B00D15837
:1011300002789207D30EFF229A400B46934319463A
:1011400042789207120E03789B07DB0E9A401143F8
:101150001B4A03231B02D21803789B109B00D1501B
:101160000278D306DB0E01229A40154B1A6007E085
:101170000278D306DB0E01229A40114B80331A60AD
:101180007047002905D00F4A126902430D4B1A61BE
:1011900004E00C4A126982430A4B1A617047042822
:1011A00006D10949096904221143074A116105E082
:1011B0000549096904229143034A116170470000FF
:1011C00000E100E000ED00E000E000E01CB50121DE
:1011D0004804FFF768FC1020009001216846417127
:1011E00001710021817169460920C006FFF728F9C5
:1011F0001CBD10B510210920C006FFF7A0F910BDD5
:1012000010B510210920C006FFF797F910BD0000A6
:10121000274909884143491E264A516101219161AC
:101220001146096901221143224A116100BF214977
:1012300009690122120411400029F8D01D490969E9
:10124000490849001B4A116170471A49096902227D
:101250009143184A1161C217520F12185205120E0B
:10126000154B1A70194609787D22D2005143104A55
:1012700011807047104909784143491E0D4A516158
:10128000012191611146096901221143094A116145
:1012900000BF084909690122120411400029F8D051
:1012A0000449096949084900024A11617047000070
:1012B000D000002000E000E0D200002000BF704716
:1012C00000BF304AD26980231A40002AF9D02D4B42
:1012D00020331881704710B5044601214804FFF7F8
:1012E000E2FB01218803FFF7ECFB27490920C00638
:1012F000FFF7A6F801220921C806FFF72AF9012203
:101300000A210920C006FFF724F92048046001469D
:101310001C48FFF763FC01221D491A48FFF78CFEA9
:1013200001211848FFF7F3FC1A48FFF7F5FE10BD3E
:1013300010B517491348FFF7BFFE002820D0114809
:10134000FFF7A0FD04460A2C0DD11349134A127869
:101350008C5400201149087000BF00BF20210E48A6
:1013600000F074FB0CE021460648FFF787FD0A49B0
:101370000A4A12788C5409480078401C07490870C2
:1013800010BD000000380140D8000020E00000201F
:1013900005010500F800002010010020FB000020DE
:1013A00070B504460D4629462046FFF77CFB70BD0C
:1013B0000146504A881A914215D008DC4E48081858
:1013C00000280CD001229202801A12D109E00122D9
:1013D0009202801A09D05200801A0AD107E0002038
:1013E00070470120FCE70220FAE70320F8E7052018
:1013F000F6E70020C043F3E70246002107E00120A2
:1014000088401040002801D008467047491C202918
:10141000F5DB0020C043F8E7014601208840704713
:1014200070B505462C462069002827D10121206887
:10143000FFF7B6FF214608316068FFF701F8A068A2
:10144000FFF7DAFF0646227B31462CA000F086F932
:10145000207B012806D1228991B201226068FFF722
:1014600070F809E0207B022805D1227DB1B26068C6
:10147000FFF76FF800E000BFA0682061002070BD9A
:1014800070B504460E4625462869002800D170BD77
:10149000002E01D0012300E000231A462B8999B2C7
:1014A0006868FFF74EF800BFF1E770B504462546BF
:1014B0002869002801D1401E70BD6868FFF72DF82B
:1014C0000646A8683040002801D00120F4E700203B
:1014D000F2E7F8B504460D4626463069002801D1EA
:1014E000401EF8BD7068FFF718F8074638462840D8
:1014F000F7E7000000080048000000B820696E69A6
:10150000745F6770696F5F70776D5F70696E2025BB
:10151000643A2025640A00000748804707480047CE
:10152000FEE7FEE7FEE7FEE7FEE7FEE704480549C3
:10153000054A064B7047000031160008B10000084C
:1015400090010020900700209003002090030020CD
:101550000CB5002001900090774800680121090433
:1015600008437549086000BF7348006801214904B9
:10157000084000900198401C01900098002804D178
:101580000521090301988842EED16B4800680121CA
:1015900049040840002802D00120009001E000200A
:1015A00000900098012842D1644800681021084347
:1015B0006249086008460068012108435F490860E5
:1015C0005D4840685C494860084640684860084695
:1015D00040683F21090488435749486008464068ED
:1015E0001121090408435449486008460068012154
:1015F000090608435049086000BF4F4800680121B0
:10160000490608400028F8D04B4840688008800010
:1016100049494860084640680221084346494860F5
:1016200000BF454840680C2108400828F9D10CBD8E
:1016300010B541480068012108433F490860084649
:1016400040683F4908403C494860084600683D49B9
:101650000840394908600846006801218904884328
:1016600035490860084640683F21090488433249EB
:1016700048600846C06A00090001C8620846006B5D
:10168000FF21543188432C4908630846406B4008C9
:101690004000486300208860FFF75AFF10BDF8B58E
:1016A0000025002400260027234840680C2108401C
:1016B0000546002D04D0042D06D0082D2AD107E0C0
:1016C00021482249086029E01F482049086025E098
:1016D000194840680F2189040840044616484068AC
:1016E0000121090408400646A00C841C002E04D1E8
:1016F00017486043154908600BE00F48C06A0007AF
:10170000000F471C3946104800F0A4F960430F4908
:10171000086003E00C480D49086000BF00BF0648A0
:101720004068F021084000090A490D5C074800683C
:10173000E84006490860F8BD001002400020024061
:101740000CB8FFF8FFFFF6FE00127A00FC00002044
:1017500000093D0000010020704700000FB405495A
:1017600010B503AA029800F095FA10BC08BC04B0AA
:1017700018470000D400002070B504468569006851
:10178000C10601D5302600E02026C00707D070BD75
:1017900062683046A1689047206A401C20626D1E36
:1017A000F6D570BD70B5044685690078C00707D1CD
:1017B00070BD6268A16820209047206A401C2062AA
:1017C0006D1EF6D570BD70B50C460546012A05D0D4
:1017D0002878800600D5EA69002302E0012305E0AD
:1017E0005B1C934202D2E05C0028F9D1A869E6189C
:1017F000C01AA861286AC01828622846FFF7BCFFF3
:1018000004E06A682078A968641C9047B442F8D361
:101810002846FFF7C7FF70BDF7B50025752910688A
:10182000009914A611D0C046C046002802DA4042F2
:1018300011A608E0009909688A0701D50FA602E001
:10184000490704D50EA6012501E0C046C046009F09
:101850000024243704E000F031FA30313955641C9B
:101860000028F8D12B4632462146009800F0A3F913
:10187000FEBD0000000000002D0000002B00000055
:101880002000000070B504460D4621461068C04691
:10189000C0462188090502D50F4A7A4402E00E4A63
:1018A0007A440E3223460021243305E0060700095E
:1018B000360F965D5E54491C0028F7D1207800232E
:1018C000000705D5702D03D0002901D00223113265
:1018D000204600F070F970BDE0040000F3B5044646
:1018E000002081B020622046E168884700287DD032
:1018F000252802D06268A16883E0454F00257F4417
:101900002046E16888472028064608DB312E06D2AB
:10191000B81920380078002801D00543F0E7A8075F
:1019200001D5042085430020E0610746A0612A2EEE
:101930000AD0304600F01CFA002827D0B800001961
:10194000303E0090866119E00298BA00121902C870
:10195000916102902046E1688847012F064617D121
:10196000E06900281FDA202085431CE000980A2146
:101970008069484300998019303888612046E168C1
:101980008847064600F0F4F90028EFD1012F0AD06D
:101990002E2E08D12046E1688847064620200543C0
:1019A0007F1C022FC3DBA069002803DA4042A0613C
:1019B00001200543E80701D010208543002E24D0E4
:1019C00030464138192803D80120C002054320368B
:1019D000204625603146029A1546FEF7A7FB0028EF
:1019E0000CD0012807D0ED1DE80800E00DE0C00094
:1019F0000830029077E72D1D029574E76268304643
:101A0000A1689047206A401C6CE7206AFEBD000078
:101A1000A404000001E004C0091F0429FBD28B07C5
:101A200001D50280801CC90700D0027070470029D0
:101A30000BD0C30702D00270401C491E022904D3F8
:101A4000830702D50280801C891EE3E70022EEE7AF
:101A50000022DFE7002203098B422CD3030A8B42CA
:101A600011D300239C464EE003460B433CD4002296
:101A700043088B4231D303098B421CD3030A8B42A8
:101A800001D394463FE0C3098B4201D3CB01C01A76
:101A9000524183098B4201D38B01C01A5241430941
:101AA0008B4201D34B01C01A524103098B4201D32F
:101AB0000B01C01A5241C3088B4201D3CB00C01A9C
:101AC000524183088B4201D38B00C01A5241430814
:101AD0008B4201D34B00C01A5241411A00D2014639
:101AE0005241104670475DE0CA0F00D049420310D2
:101AF00000D34042534000229C4603098B422DD321
:101B0000030A8B4212D3FC22890112BA030A8B42C8
:101B10000CD3890192118B4208D3890192118B4217
:101B200004D389013AD0921100E08909C3098B429C
:101B300001D3CB01C01A524183098B4201D38B01DF
:101B4000C01A524143098B4201D34B01C01A524182
:101B500003098B4201D30B01C01A5241C3088B42C7
:101B600001D3CB00C01A524183088B4201D38B00B2
:101B7000C01A5241D9D243088B4201D34B00C01A3C
:101B80005241411A00D20146634652415B10104651
:101B900001D34042002B00D54942704763465B1099
:101BA00000D3404201B50020C046C04602BD704788
:101BB000704770477047FFB504460D4681B024302A
:101BC00000902168880604D51022E06991432160C5
:101BD00000E00120A84201DD471B00E00027049837
:101BE000A1697A191018081AA0612078C00602D4D9
:101BF0002046FFF7C1FD002608E003986268A1684F
:101C0000805D9047206A401C761C206204988642C2
:101C1000F3DB2078C0060AD52046FFF7ADFD06E0CD
:101C20006268A16830209047206A401C20623846D4
:101C30007F1E0028F4DC07E000986268A168405D20
:101C40009047206A401C206228466D1E0028F3DC65
:101C50002046FFF7A7FD2078000602D5022005B038
:101C6000F0BD0120FBE710B54369002B02D0C04650
:101C7000C04601E0FFF7A7FD012010BD1278014624
:101C800024310A7000224A700122ECE71168002218
:101C9000D243E8E7084B70B50D467B4400F027F8C7
:101CA0000446284600F036F8002802D00020C04341
:101CB00070BD204670BD000023F6FFFF014680087E
:101CC000081A02091018020A1018020C1018C0088D
:101CD000820012185200891A01E0401C0A390A29B0
:101CE000FBD2704701694A1C02610878704700B551
:101CF0008FB0029100210591054901937944039128
:101D0000114604906846FFF7E9FD0FB000BD0000E2
:101D1000E5FFFFFFC068802108407047754600F06E
:101D200023F8AE46050069465346C008C000854604
:101D300018B020B5FFF7FAFB60BC00274908B6468B
:101D40000026C0C5C0C5C0C5C0C5C0C5C0C5C0C5CA
:101D5000C0C5403D49008D4670470446C046C04658
:101D60002046FEF702FA00000048704730010020CC
:101D700030380A2801D201207047002070473031E6
:101D800032333435363738394142434445464030A2
:101D90005800303132333435363738396162636454
:101DA0006566403078000400000800000000000074
:101DB0000002000100001000D81D000800000020F3
:101DC00010010000F4000008E81E000810010020C7
:101DD000800600001001000800000200000000481A
:101DE00001000000000300010000000000000000EE
:101DF0000000020000000048020000000003000193
:101E00000000000000000000000002000000004888
:101E100004000000000300010000000000000000BA
:101E20000000080000000048080000000003000156
:101E30000000000000000000000002000000004858
:101E4000100000000003000100000000000000007E
:101E50000000020000000048200000000003000114
:101E60000000000000000000000002000000004828
:101E7000400000000003000100000000000000001E
:101E80000000020000000048800000000103000183
:101E90000000000000000000000000000102030438
:101EA000010203040607080900000000000000000A
:101EB000000600000203000100C201000000000053
:101EC00000000000000000000C0000000000000006
:101ED0001B020100006CDC0200000000000000009A
:081EE0000102030406070809D2
:04000005080000B13E
:00000001FF
